:100000000C942A000C943C000C943C000C943C0092
:100010000C943C000C943C000C943C000C943C0070
:100020000C943C000C943C000C94C3000C94850090
:100030000C943C000C943C000C943C000C943C0050
:100040000C943C000C943C000C943C000C943C0040
:100050000C943C0011241FBECFE5D8E0DEBFCDBF1D
:1000600020E0A0E6B0E001C01D92A936B207E1F79A
:100070000E943E000C9415010C9400000E94470061
:1000800085E00E9460008BE40E946B00FFCF8FB779
:1000900080688FBF83B7806483BF83B7886083BF66
:1000A00083B78F7C83BF83B7806383BF83B78F772A
:1000B00083BF89B78E7F89BF89B78D7F89BF089538
:1000C0001092640093B7987F93BF93B7892B83BF37
:1000D00008958CBF0895CF93DF931F92CDB7DEB7FD
:1000E00097B3986097BB19822FEF829FC0011124AC
:1000F00064E670E00E94ED006095698389810E944A
:1001000069000F90DF91CF9108951F920F920FB663
:100110000F9211242F933F934F935F936F937F938D
:100120008F939F93AF93BF93EF93FF938091600062
:1001300090916100A0916200B09163000196A11DB1
:10014000B11D8093600090936100A0936200B09312
:10015000630080916400882329F0E0916700F091AA
:1001600068000995FF91EF91BF91AF919F918F9199
:100170007F916F915F914F913F912F910F900FBEA3
:100180000F901F9018951F920F920FB60F92112487
:100190002F933F934F935F936F937F938F939F938F
:1001A000AF93BF93EF93FF93E0916500F0916600EA
:1001B000099588B7826088BFFF91EF91BF91AF9199
:1001C0009F918F917F916F915F914F913F912F916F
:1001D0000F900FBE0F901F90189597FB072E16F4E7
:1001E000009407D077FD09D00E94010107FC05D0DB
:1001F0003EF4909581959F4F0895709561957F4F3E
:100200000895AA1BBB1B51E107C0AA1FBB1FA6175D
:10021000B70710F0A61BB70B881F991F5A95A9F7AF
:0E02200080959095BC01CD010895F894FFCF14
:00000001FF
