S015000054726166666963204C696768742E7372656338
S11300000C942A000C9447000C9447000C9447006D
S11300100C9447000C9447000C9447000C94470040
S11300200C9447000C9447000C9471030C94330314
S11300300C9447000C9447000C9447000C94470020
S11300400C9447000C9447000C9447000C94470010
S11300500C94470011241FBECFE5D8E0DEBFCDBF0E
S113006010E0A0E6B0E0EEE0FDE002C005900D92E5
S1130070A63AB107D9F720E0A6EAB0E001C01D9284
S1130080A03BB207E1F70E9455020C9485060C943C
S11300900000813001F130F08230B1F1833009F495
S11300A04CC00895413059F42AB381E090E002C075
S11300B0880F991F6A95E2F7822B8ABB08952AB3A9
S11300C081E090E002C0880F991F6A95E2F780955D
S11300D082238ABB0895413059F427B381E090E02C
S11300E002C0880F991F6A95E2F7822B87BB089597
S11300F027B381E090E002C0880F991F6A95E2F768
S11301008095822387BB0895413059F424B381E05C
S113011090E002C0880F991F6A95E2F7822B84BB96
S1130120089524B381E090E002C0880F991F6A9576
S1130130E2F78095822384BB0895413059F421B3BA
S113014081E090E002C0880F991F6A95E2F7822B44
S113015081BB089521B381E090E002C0880F991F0C
S11301606A95E2F78095822381BB0895813001F17D
S113017030F08230B1F1833009F44CC0089541303D
S113018059F42BB381E090E002C0880F991F6A955F
S1130190E2F7822B8BBB08952BB381E090E002C081
S11301A0880F991F6A95E2F7809582238BBB089587
S11301B0413059F428B381E090E002C0880F991FC0
S11301C06A95E2F7822B88BB089528B381E090E01A
S11301D002C0880F991F6A95E2F78095822388BB35
S11301E00895413059F425B381E090E002C0880FAE
S11301F0991F6A95E2F7822B85BB089525B381E0A8
S113020090E002C0880F991F6A95E2F780958223D7
S113021085BB0895413059F422B381E090E002C0D7
S1130220880F991F6A95E2F7822B82BB089522B347
S113023081E090E002C0880F991F6A95E2F78095EB
S1130240822382BB0895813069F028F0823089F0DE
S11302508330B1F00895613019F48FEF8ABB0895AB
S11302601ABA0895613019F48FEF87BB089517BA4D
S11302700895613019F48FEF84BB089514BA08957A
S1130280613019F48FEF81BB089511BA089581305C
S113029041F028F0823039F0833039F008956BBB97
S11302A0089568BB089565BB089562BB089541E055
S11302B060E081E00E94B6008FE99FE00197F1F7CA
S11302C000C0000040E060E081E00E94B6000895B4
S11302D0682F80E00E94470140E061E081E00E94D5
S11302E0B60040E062E081E00E94B6000E9457013F
S11302F008952FEF81EE94E0215080409040E1F783
S113030000C0000041E061E081E00E94490041E05A
S113031062E081E00E94490041E060E081E00E94E7
S1130320490061E080E00E94230188E30E946801A3
S11303308FEC97E00197F1F700C000008EE00E9477
S113034068018FEC97E00197F1F700C0000081E0AD
S11303500E9468018FE19EE40197F1F700C000005C
S113036086E00E9468018FEC97E00197F1F700C0E6
S1130370000008959FEF980F923070F4662371F097
S1130380613170F4813019F42FE7260F0AC08230EE
S113039041F42FEB260F05C020E803C020E801C07C
S11303A020E8822F0E9468018FEC97E00197F1F713
S11303B000C00000089581E00E9468018FE19EE47E
S11303C00197F1F700C000000895682F80E00E94B3
S11303D0470141E061E081E00E94B60040E062E054
S11303E081E00E94B6000E9457010895CF93DF93E5
S11303F0EC0103C00E94E501219688818111FACFA6
S1130400DF91CF9108950F931F93CF93DF93CDB7CF
S1130410DEB727970FB6F894DEBF0FBECDBF9F930C
S11304208F937F936F9383E690E09F938F938E01D6
S11304300F5F1F4F1F930F930E949B03C8010E94DD
S1130440F6010FB6F894DEBF0FBECDBF27960FB6E8
S1130450F894DEBF0FBECDBFDF91CF911F910F91F6
S11304600895CF93DF93C82FD62F41E00E9449000F
S113047041E06D2F8C2F0E94B600DF91CF9108953B
S1130480CF93DF93C82FD62F41E00E94490040E06C
S11304906D2F8C2F0E94B600DF91CF91089580912B
S11304A0A6008F5F8093A60008950E9479010E94A0
S11304B00A0380E50E942C038FE492E00E942E033D
S11304C085E00E9423038AE08093620085E08093A4
S11304D0610087E0809360000E94DB0182E790E086
S11304E00E94F60160E083E00E94310224C0809102
S11304F0A600843600F11092A6008091620081501B
S1130500809362006BE081E00E94BA0180E20E9465
S1130510E501809162009DEC899F912D11249695AF
S113052096959695990F292F220F220F920F891BCA
S1130530805D0E94E501809162008111D8CF2FEF88
S113054084E39CE0215080409040E1F700C000002B
S113055061E083E00E94310260E083E00E94400297
S11305600E94DB0183E890E00E94F60119C08091AB
S1130570A6008436A8F01092A600809161008150F4
S1130580809361006BE081E00E94BA0180E20E94E6
S1130590E5016091610070E080E090E00E94030258
S11305A0809161008111E3CF2FEF84E39CE021501F
S11305B080409040E1F700C0000062E083E00E94C8
S11305C0310261E083E00E9440020E94DB0184E981
S11305D090E00E94F60119C08091A6008436A8F02C
S11305E01092A600809160008150809360006BE0BF
S11305F081E00E94BA0180E20E94E50160916000FE
S113060070E080E090E00E9403028091600081111C
S1130610E3CF59CF8FB780688FBF83B78F7B83BFFA
S113062083B7886083BF83B78F7C83BF83B78063BE
S113063083BF83B78F7783BF89B78E7F89BF89B71D
S1130640826089BF08951092AB0093B7987F93BFDF
S113065093B7892B83BF08958CBF08959093AD0001
S11306608093AC0008951F920F920FB60F9211243D
S11306702F933F934F935F936F937F938F939F93A6
S1130680AF93BF93EF93FF938091A7009091A8003D
S1130690A091A900B091AA000196A11DB11D80935B
S11306A0A7009093A800A093A900B093AA008091FA
S11306B0AB00882329F0E091AE00F091AF000995DA
S11306C0FF91EF91BF91AF919F918F917F916F9126
S11306D05F914F913F912F910F900FBE0F901F90FC
S11306E018951F920F920FB60F9211242F933F93D8
S11306F04F935F936F937F938F939F93AF93BF9326
S1130700EF93FF93E091AC00F091AD00099588B7A9
S1130710826088BFFF91EF91BF91AF919F918F91BC
S11307207F916F915F914F913F912F910F900FBEE9
S11307300F901F901895AEE0B0E0E1EAF3E00C945E
S11307405C060D891E8986E08C831A8309838FEFEA
S11307509FE79E838D83AE01475E5F4F6F89788DDF
S1130760CE0101960E94BD03EF81F885E00FF11FD1
S113077010822E96E4E00C947806ABE0B0E0E3EC53
S1130780F3E00C944E066C017B018A01FC01178294
S11307901682838181FFCCC1CE0101963C01F60112
S11307A09381F70193FD859193FF81917F018823C4
S11307B009F4BAC1853239F493FD859193FF81918F
S11307C07F01853229F4B60190E00E94B405E7CF99
S11307D0912C212C312CFFE1F315D8F08B3279F0D8
S11307E038F4803279F08332A1F4232D20611DC0C6
S11307F08D3261F0803369F4232D216016C0832D7E
S11308008260382EE32DE4603E2E2AC0F32DF8607A
S11308101DC037FC2DC020ED280F2A3040F08E3249
S1130820B9F436FC81C1232D2064322E19C036FE62
S113083006C08AE0989E200D1124922E11C0EAE091
S11308402E9E200D1124222EF32DF0623F2E08C07F
S11308508C3621F4832D8068382E02C0883641F40A
S1130860F70193FD859193FF81917F018111B3CFAE
S1130870982F9F7D9554933028F40C5F1F4F9FE36E
S113088099830DC0833631F0833771F0833509F0D5
S113089059C021C0F801808189830E5F1F4F8824CD
S11308A08394912C530113C02801F2E04F0E511C84
S11308B0F801A080B18036FE03C0692D70E002C04B
S11308C06FEF7FEFC5010E94A9054C018201F32D52
S11308D0FF773F2E16C0280122E0420E511CF8017A
S11308E0A080B18036FE03C0692D70E002C06FEFB6
S11308F07FEFC5010E949E054C01F32DF0683F2E49
S1130900820133FC1BC0822D90E088169906B0F456
S1130910B60180E290E00E94B4052A94F4CFF50178
S113092037FC859137FE81915F01B60190E00E940A
S1130930B40521102A9421E0821A910881149104AB
S113094071F7E8C0843611F0893641F5F80137FEB5
S113095007C060817181828193810C5F1F4F08C041
S113096060817181072E000C880B990B0E5F1F4F5D
S1130970F32DFF763F2E97FF09C0909580957095D3
S113098061957F4F8F4F9F4FF0683F2E2AE030E0F4
S1130990A3010E94F005882E861845C0853731F4DE
S11309A0232D2F7EB22E2AE030E025C0932D997F8F
S11309B0B92E8F36C1F018F4883579F0B5C0803778
S11309C019F0883721F0B0C0E92FE061BE2EB4FEE3
S11309D00DC0FB2DF460BF2E09C034FE0AC0292FC0
S11309E02660B22E06C028E030E005C020E130E0E9
S11309F002C020E132E0F801B7FE07C060817181D6
S1130A00828193810C5F1F4F06C06081718180E0F9
S1130A1090E00E5F1F4FA3010E94F005882E8618F8
S1130A20FB2DFF773F2E36FE0DC0232D2E7FA22EE9
S1130A30891458F434FE0BC032FC09C0832D8E7E19
S1130A40A82E05C0B82CA32C03C0B82C01C0B92C07
S1130A50A4FE0FC0FE01E80DF11D8081803321F456
S1130A609A2D997EA92E09C0A2FE06C0B394B39410
S1130A7004C08A2D867809F0B394A3FC11C0A0FEAB
S1130A8006C0B21488F4280C922C9B180EC0B21421
S1130A9060F4B60180E290E00E94B405B394F7CF0D
S1130AA0B21418F42B1802C0982C212CA4FE10C0E8
S1130AB0B60180E390E00E94B405A2FE17C0A1FC39
S1130AC003C088E790E002C088E590E0B6010CC05E
S1130AD08A2D867859F0A1FE02C08BE201C080E223
S1130AE0A7FC8DE2B60190E00E94B405891438F4A5
S1130AF0B60180E390E00E94B4059A94F7CF8A94FB
S1130B00F301E80DF11D8081B60190E00E94B40567
S1130B108110F5CF222009F442CEB60180E290E0A4
S1130B200E94B4052A94F6CFF6018681978102C00B
S1130B308FEF9FEF2B96E2E10C946A06FC0105907F
S1130B40615070400110D8F7809590958E0F9F1FCB
S1130B500895FC016150704001900110D8F7809510
S1130B6090958E0F9F1F08950F931F93CF93DF933C
S1130B70FB01238121FD03C08FEF9FEF2CC022FFD7
S1130B8016C046815781248135814217530744F4A6
S1130B90A081B1819D012F5F3F4F318320838C93CE
S1130BA0268137812F5F3F4F3783268314C08B0103
S1130BB0EC01FB010084F185E02D0995892BE1F618
S1130BC0D80116968D919C911797019617969C9330
S1130BD08E931697CE01DF91CF911F910F910895B7
S1130BE0FA01AA27283051F1203181F1E8946F935A
S1130BF06E7F6E5F7F4F8F4F9F4FAF4FB1E03ED000
S1130C00B4E03CD0670F781F891F9A1FA11D680F9D
S1130C10791F8A1F911DA11D6A0F711D811D911DD0
S1130C20A11D20D009F468943F912AE0269F112445
S1130C303019305D3193DEF6CF010895462F4770A9
S1130C40405D4193B3E00FD0C9F7F6CF462F4F7004
S1130C50405D4A3318F0495D31FD4052419302D062
S1130C60A9F7EACFB4E0A695979587957795679508
S1130C70BA95C9F700976105710508959B01AC0108
S1130C800A2E06945795479537952795BA95C9F72F
S1130C90620F731F841F951FA01D08952F923F920A
S1130CA04F925F926F927F928F929F92AF92BF9278
S1130CB0CF92DF92EF92FF920F931F93CF93DF9324
S1130CC0CDB7DEB7CA1BDB0B0FB6F894DEBF0FBE81
S1130CD0CDBF09942A88398848885F846E847D84CE
S1130CE08C849B84AA84B984C884DF80EE80FD80D0
S1130CF00C811B81AA81B981CE0FD11D0FB6F89446
S1110D00DEBF0FBECDBFED010895F894FFCF06
S1130D0E07050A2564002D00257325642E2530342D
S1130D1E640052656D61696E696E672031302053CF
S1130D2E65630052656D61696E696E6720203520BA
S1130D3E7365630052656D61696E696E6720203755
S1090D4E20536563000060
S9030000FC
